S00C0000414443732E73726563DD
S11300000C9434000C943E000C943E000C943E007E
S11300100C943E000C943E000C943E000C943E0064
S11300200C943E000C943E000C943E000C943E0054
S11300300C943E000C943E000C943E000C943E0044
S11300400C943E000C943E000C943E000C943E0034
S11300500C943E000C94D2000C943E000C943E0090
S11300600C943E000C943E0011241FBECFEFD8E048
S1130070DEBFCDBF0E9459000C940A020C9400000C
S1130080ECE7F0E09081907F8F70892B8083EAE722
S1130090F0E080818064808380917A0086FDFCCFCB
S11300A0609178007091790080E090E00E94E60011
S11300B00895F8948AB180628AB98AB180688AB94D
S11300C08AB181608AB9ECE7F0E080818F77808320
S11300D080818064808380818F7D8083EAE7F0E083
S11300E0808180688083808180628083ABE7B0E018
S11300F08C918B7F8C938C918D7F8C938C918E7F44
S11301008C9380818460808380818D7F80838081D3
S11301108E7F808380E090E00E94400020E030E009
S113012040EA50E40E944C0120E030E040E85AE309
S11301300E944C014B015C0182E090E00E9440006F
S113014020E030E040EA50E40E944C0120E030E03E
S113015040E85AE30E944C016B017C0120E030E04E
S113016040E450E4C501B4010E944701882324F00F
S11301708BB180628BB903C08BB18F7D8BB920E0CA
S113018030E040E450E4C701B6010E94E1001816D3
S113019024F08BB180688BB903C08BB18F778BB996
S11301A07894FFCF1F920F920FB60F9211248F9362
S11301B08BB181608BB98F910F900FBE0F901F9000
S11301C018950E94230108F481E00895E89409C079
S11301D097FB3EF490958095709561957F4F8F4F76
S11301E09F4F9923A9F0F92F96E9BB279395F6958C
S11301F0879577956795B795F111F8CFFAF4BB0F0A
S113020011F460FF1BC06F5F7F4F8F4F9F4F16C06D
S1130210882311F096E911C0772321F09EE8872FF7
S1130220762F05C0662371F096E8862F70E060E0B3
S11302302AF09A95660F771F881FDAF7880F96952C
S1130240879597F90895990F0008550FAA0BE0E8D0
S1130250FEEF16161706E807F907C0F01216130684
S1130260E407F50798F0621B730B840B950B39F4C4
S11302700A2661F0232B242B252B21F408950A262A
S113028009F4A140A6958FEF811D811D08950E9458
S1130290230108F48FEF08950E945F010C94D001AC
S11302A00E94C20138F00E94C90120F0952311F088
S11302B00C94B9010C94BF0111240C9404020E9403
S11302C0E10170F3959FC1F3950F50E0551F629FB4
S11302D0F001729FBB27F00DB11D639FAA27F00D9B
S11302E0B11DAA1F649F6627B00DA11D661F829FC2
S11302F02227B00DA11D621F739FB00DA11D621FA7
S1130300839FA00D611D221F749F3327A00D611DC3
S1130310231F849F600D211D822F762F6A2F1124A5
S11303209F5750409AF0F1F088234AF0EE0FFF1FD8
S1130330BB1F661F771F881F91505040A9F79E3F2F
S1130340510580F00C94B9010C9404025F3FE4F36E
S1130350983ED4F3869577956795B795F795E79585
S11303609F5FC1F7FE2B880F911D9695879597F98E
S1130370089597F99F6780E870E060E008959FEF23
S113038080EC089500240A94161617061806090628
S1130390089500240A9412161306140605060895F7
S11303A0092E0394000C11F4882352F0BB0F40F47F
S11303B0BF2B11F460FF04C06F5F7F4F8F4F9F4FBF
S11303C0089557FD9058440F551F59F05F3F71F041
S11303D04795880F97FB991F61F09F3F79F08795A8
S11303E00895121613061406551FF2CF4695F1DF31
S11303F008C0161617061806991FF1CF86957105C1
S1130400610508940895E894BB2766277727CB01F4
S10B041097F90895F894FFCF59
S9030000FC
